{
  "contractName": "WafLog",
  "abi": [
    {
      "anonymous": false,
      "inputs": [
        {
          "indexed": true,
          "internalType": "uint256",
          "name": "timestamp",
          "type": "uint256"
        },
        {
          "indexed": false,
          "internalType": "string",
          "name": "sourceIP",
          "type": "string"
        },
        {
          "indexed": false,
          "internalType": "uint256",
          "name": "threatScore",
          "type": "uint256"
        },
        {
          "indexed": false,
          "internalType": "string",
          "name": "decision",
          "type": "string"
        }
      ],
      "name": "LogAdded",
      "type": "event"
    },
    {
      "inputs": [
        {
          "internalType": "uint256",
          "name": "",
          "type": "uint256"
        }
      ],
      "name": "allLogs",
      "outputs": [
        {
          "internalType": "uint256",
          "name": "timestamp",
          "type": "uint256"
        },
        {
          "internalType": "string",
          "name": "sourceIP",
          "type": "string"
        },
        {
          "internalType": "string",
          "name": "requestDetails",
          "type": "string"
        },
        {
          "internalType": "uint256",
          "name": "threatScore",
          "type": "uint256"
        },
        {
          "internalType": "string",
          "name": "decision",
          "type": "string"
        }
      ],
      "stateMutability": "view",
      "type": "function",
      "constant": true
    },
    {
      "inputs": [
        {
          "internalType": "string",
          "name": "_sourceIP",
          "type": "string"
        },
        {
          "internalType": "string",
          "name": "_requestDetails",
          "type": "string"
        },
        {
          "internalType": "uint256",
          "name": "_threatScore",
          "type": "uint256"
        },
        {
          "internalType": "string",
          "name": "_decision",
          "type": "string"
        }
      ],
      "name": "addLog",
      "outputs": [],
      "stateMutability": "nonpayable",
      "type": "function"
    },
    {
      "inputs": [],
      "name": "getLogsCount",
      "outputs": [
        {
          "internalType": "uint256",
          "name": "",
          "type": "uint256"
        }
      ],
      "stateMutability": "view",
      "type": "function",
      "constant": true
    }
  ],
  "bytecode": "0x608060405234801561001057600080fd5b50610a72806100206000396000f3fe608060405234801561001057600080fd5b50600436106100415760003560e01c80635a1d92da14610046578063cc9e300f1461007a578063ec9a4d1914610098575b600080fd5b610060600480360381019061005b91906103da565b6100b4565b6040516100719594939291906104a6565b60405180910390f35b610082610292565b60405161008f919061050e565b60405180910390f35b6100b260048036038101906100ad919061065e565b61029e565b005b600081815481106100c457600080fd5b90600052602060002090600502016000915090508060000154908060010180546100ed90610748565b80601f016020809104026020016040519081016040528092919081815260200182805461011990610748565b80156101665780601f1061013b57610100808354040283529160200191610166565b820191906000526020600020905b81548152906001019060200180831161014957829003601f168201915b50505050509080600201805461017b90610748565b80601f01602080910402602001604051908101604052809291908181526020018280546101a790610748565b80156101f45780601f106101c9576101008083540402835291602001916101f4565b820191906000526020600020905b8154815290600101906020018083116101d757829003601f168201915b50505050509080600301549080600401805461020f90610748565b80601f016020809104026020016040519081016040528092919081815260200182805461023b90610748565b80156102885780601f1061025d57610100808354040283529160200191610288565b820191906000526020600020905b81548152906001019060200180831161026b57829003601f168201915b5050505050905085565b60008080549050905090565b60006040518060a0016040528042815260200186815260200185815260200184815260200183815250905060008190806001815401808255809150506001900390600052602060002090600502016000909190919091506000820151816000015560208201518160010190816103149190610925565b50604082015181600201908161032a9190610925565b5060608201518160030155608082015181600401908161034a9190610925565b505050427f92c82cb7b2e0240c5929016506d0884604ccafd04f298b1b1f525f8505ce473e868585604051610381939291906109f7565b60405180910390a25050505050565b6000604051905090565b600080fd5b600080fd5b6000819050919050565b6103b7816103a4565b81146103c257600080fd5b50565b6000813590506103d4816103ae565b92915050565b6000602082840312156103f0576103ef61039a565b5b60006103fe848285016103c5565b91505092915050565b610410816103a4565b82525050565b600081519050919050565b600082825260208201905092915050565b60005b83811015610450578082015181840152602081019050610435565b60008484015250505050565b6000601f19601f8301169050919050565b600061047882610416565b6104828185610421565b9350610492818560208601610432565b61049b8161045c565b840191505092915050565b600060a0820190506104bb6000830188610407565b81810360208301526104cd818761046d565b905081810360408301526104e1818661046d565b90506104f06060830185610407565b8181036080830152610502818461046d565b90509695505050505050565b60006020820190506105236000830184610407565b92915050565b600080fd5b600080fd5b7f4e487b7100000000000000000000000000000000000000000000000000000000600052604160045260246000fd5b61056b8261045c565b810181811067ffffffffffffffff8211171561058a57610589610533565b5b80604052505050565b600061059d610390565b90506105a98282610562565b919050565b600067ffffffffffffffff8211156105c9576105c8610533565b5b6105d28261045c565b9050602081019050919050565b82818337600083830152505050565b60006106016105fc846105ae565b610593565b90508281526020810184848401111561061d5761061c61052e565b5b6106288482856105df565b509392505050565b600082601f83011261064557610644610529565b5b81356106558482602086016105ee565b91505092915050565b600080600080608085870312156106785761067761039a565b5b600085013567ffffffffffffffff8111156106965761069561039f565b5b6106a287828801610630565b945050602085013567ffffffffffffffff8111156106c3576106c261039f565b5b6106cf87828801610630565b93505060406106e0878288016103c5565b925050606085013567ffffffffffffffff8111156107015761070061039f565b5b61070d87828801610630565b91505092959194509250565b7f4e487b7100000000000000000000000000000000000000000000000000000000600052602260045260246000fd5b6000600282049050600182168061076057607f821691505b60208210810361077357610772610719565b5b50919050565b60008190508160005260206000209050919050565b60006020601f8301049050919050565b600082821b905092915050565b6000600883026107db7fffffffffffffffffffffffffffffffffffffffffffffffffffffffffffffffff8261079e565b6107e5868361079e565b95508019841693508086168417925050509392505050565b6000819050919050565b600061082261081d610818846103a4565b6107fd565b6103a4565b9050919050565b6000819050919050565b61083c83610807565b61085061084882610829565b8484546107ab565b825550505050565b600090565b610865610858565b610870818484610833565b505050565b5b818110156108945761088960008261085d565b600181019050610876565b5050565b601f8211156108d9576108aa81610779565b6108b38461078e565b810160208510156108c2578190505b6108d66108ce8561078e565b830182610875565b50505b505050565b600082821c905092915050565b60006108fc600019846008026108de565b1980831691505092915050565b600061091583836108eb565b9150826002028217905092915050565b61092e82610416565b67ffffffffffffffff81111561094757610946610533565b5b6109518254610748565b61095c828285610898565b600060209050601f83116001811461098f576000841561097d578287015190505b6109878582610909565b8655506109ef565b601f19841661099d86610779565b60005b828110156109c5578489015182556001820191506020850194506020810190506109a0565b868310156109e257848901516109de601f8916826108eb565b8355505b6001600288020188555050505b505050505050565b60006060820190508181036000830152610a11818661046d565b9050610a206020830185610407565b8181036040830152610a32818461046d565b905094935050505056fea2646970667358221220b6deb515bf41c5d65e1e85a2bd897c66cab45c71dd86e7fde938232a9baaf90364736f6c63430008130033",
  "immutableReferences": {},
  "source": "// SPDX-License-Identifier: MIT\r\npragma solidity >=0.8.0 <0.9.0;\r\n\r\n/**\r\n * @title WafLog\r\n * @dev Stores a log of security events from the WAF.\r\n */\r\ncontract WafLog {\r\n\r\n    // A structure to hold details of each logged event\r\n    struct LogEntry {\r\n        uint256 timestamp;\r\n        string sourceIP;\r\n        string requestDetails;\r\n        uint256 threatScore;\r\n        string decision; // \"BLOCKED\" or \"ALLOWED\"\r\n    }\r\n\r\n    // An array to store all log entries\r\n    LogEntry[] public allLogs;\r\n\r\n    // An event that is emitted every time a new log is added\r\n    event LogAdded(\r\n        uint256 indexed timestamp,\r\n        string sourceIP,\r\n        uint256 threatScore,\r\n        string decision\r\n    );\r\n\r\n    /**\r\n     * @dev Adds a new security event to the blockchain.\r\n     * This function will be called by your Python backend.\r\n     */\r\n    function addLog(\r\n        string memory _sourceIP,\r\n        string memory _requestDetails,\r\n        uint256 _threatScore,\r\n        string memory _decision\r\n    ) public {\r\n        // Create a new log entry in memory\r\n        LogEntry memory newLog = LogEntry({\r\n            timestamp: block.timestamp,\r\n            sourceIP: _sourceIP,\r\n            requestDetails: _requestDetails,\r\n            threatScore: _threatScore,\r\n            decision: _decision\r\n        });\r\n\r\n        // Add it to the storage array\r\n        allLogs.push(newLog);\r\n\r\n        // Emit an event to announce the new log\r\n        emit LogAdded(block.timestamp, _sourceIP, _threatScore, _decision);\r\n    }\r\n    function getLogsCount() public view returns (uint256) {\r\n        return allLogs.length;\r\n    }\r\n}",
  "sourcePath": "C:\\Users\\srini\\OneDrive\\Desktop\\ZeroTrustWAF\\contracts\\WafLog.sol",
  "compiler": {
    "name": "solc",
    "version": "0.8.19+commit.7dd6d404.Emscripten.clang"
  },
  "schemaVersion": "3.4.16",
  "updatedAt": "2025-10-01T13:49:51.043Z",
  "networkType": "ethereum",
  "devdoc": {
    "details": "Stores a log of security events from the WAF.",
    "kind": "dev",
    "methods": {
      "addLog(string,string,uint256,string)": {
        "details": "Adds a new security event to the blockchain. This function will be called by your Python backend."
      }
    },
    "title": "WafLog",
    "version": 1
  },
  "userdoc": {
    "kind": "user",
    "methods": {},
    "version": 1
  }
}